:020000040802F0
:10000000B85C01201903020891B10208D9940208D2
:100010008DB10208D1530208D5D5020800000000B6
:100020000000000000000000000000005D02020867
:100030003B5C020800000000B1020208B5CC0208D7
:1000400033030208330302083303020833030208B0
:100050003303020833030208955C020833030208E5
:100060003303020833030208330302083303020890
:100070003303020833030208F15A0208015B020845
:100080003303020833030208CD27020833030208B2
:100090003303020833030208330302083303020860
:1000A0003303020833030208330302083303020850
:1000B0003303020833030208330302083303020840
:1000C00033030208330302083303020881BA02082B
:1000D00091BA020833030208330302083DD502082F
:1000E0003303020833030208330302083303020810
:1000F000330302083303020833030208115B0208CA
:1001000033030208330302083303020833030208EF
:1001100033030208C5CF020809CE020833030208E0
:1001200033030208330302083303020833030208CF
:10013000330302080000000000000000330302083F
:1001400033030208330302083303020833030208AF
:10015000330302083303020833030208330302089F
:10016000330302083303020833030208330302088F
:1001700033030208330302080000000000000000FF
:1001800033030208330302084B1C012B98BF70474E
:100190002DE9F003911C9B08B1F80480B1F802909E
:1001A0000A8831F802CC8044814402448444D9F85E
:1001B0000070D8F800601568DCF80040C9F80060ED
:1001C000C8F80070CCF800501460D9F80470D8F862
:1001D00004605568DCF80440C9F80460C8F804708D
:1001E000CCF80450546008315B1ED5D1BDE8F00353
:1001F00070474B1C012B98BF70472DE9F003911CF1
:100200009B08B1F80480B1F802900A8831F802CC5A
:1002100000EB580800EB590900EB520200EB5C0CB4
:10022000D9F80070D8F800601568DCF80040C9F80B
:100230000060C8F80070CCF80050146008315B1EF4
:10024000DFD1BDE8F0037047DFF80CD002F030FAE0
:1002500000480047BDF20208B85C01202B4B19682A
:100260000868B0E8F04F80F30988BFF36F8F4FF054
:10027000000080F311887047000000000648006805
:10028000006880F3088862B661B6BFF34F8FBFF392
:100290006F8F00DF00BF00BF08ED00E0DFF80C004B
:1002A000016841F470010160704700BF88ED00E013
:1002B000EFF30980BFF36F8F144B1A681EF0100F15
:1002C00008BF20ED108A20E9F04F106008B44FF00D
:1002D000500080F31188BFF34F8FBFF36F8F10F082
:1002E0001BFB4FF0000080F3118808BC19680868F8
:1002F000B0E8F04F1EF0100F08BFB0EC108A80F38A
:100300000988BFF36F8F704700BF00BF1402002041
:10031000EFF3058070470000064880470648004715
:10032000FEE7FEE7FEE7FEE7FEE7FEE7FEE7FEE7A5
:10033000FEE7FEE7A5CD0208490202082DE9F05FBD
:100340000446FF48FD4901600268FE48FE49002658
:10035000824232D10860E661A66166612661A662CA
:10036000666226626068DFF8E4A3DFF8E4B304F1B4
:100370001005814610F0FF4F21D0208801F0E6FFE4
:1003800052465B4601F062FF07468846484602F047
:1003900022F83A46434601F040FE074688460821C7
:1003A000484601F02EFE02F016F83A46434601F0A8
:1003B0004DFF01F0F7FFA88302E00E60FEE7AE8379
:1003C000A76817F0FF4F1FD0B4F80080404601F037
:1003D000BDFF06468946384601F0FDFF52465B46A2
:1003E00001F0C2FE4B46324601F017FE06460F46AC
:1003F0004FEA082001F0AAFF32463B4601F026FFF3
:1004000001F0D0FFE88300E0EE8320884FF47A719A
:10041000B0FBF1F02884BDE8F09F2DE9FF4FCA49F9
:10042000C84A97B00968914200D0FEE71A99103186
:1004300000250A6903924A6908928A690792D1E9FC
:1004400001620C680592CA6806921A9A8B8B92898F
:100450000993CB8B0E9316E10778BE4BA3F58078FA
:1004600013F807C0B444CDF844C018F8076010F87A
:1004700002A004EB4606A3F5007413F80AC0E75D7A
:100480000CEB0609CDF82C9010F8129018F80A60C1
:1004900007EB460613F809C014F80A700CEB060EB9
:1004A00018F8096002EB420C07EB460614F80970D5
:1004B000CDF84CC010F80C9013F809C00CEB060BEB
:1004C00018F8096007EB460614F8097010F8229036
:1004D00013F809C0B444CDF848C018F8096002EB1D
:1004E000820C07EB460614F8097010F80C9013F80C
:1004F00009C00CEB060A18F80960DDF84CC007EBE0
:10050000460614F8097010F81C9013F809C0B4449A
:10051000CDF850C018F8096014F809C007EB46067A
:10052000C2EBC207DDF82C90C75DDB5D334413934B
:1005300018F80730E45D0CEB4306C9EBC903DDF89E
:1005400044C003EB4307CCEBCC0307EB8303CEEBB8
:100550000E1C63440BEB8B0C03EB4C03DDF848C023
:100560000CEB4C0803EB48030AEB4A0C6344DDF840
:1005700050C09C44069B6344DDF844C001930CEBDF
:10058000CC039B0003EB4703CEEBCE0707EB0E1724
:1005900003EB47030BEB4B0703EB0713CAEBCA074D
:1005A00003EB081307EB0A17DDF850C003EB470312
:1005B000CCEBCC0707EB470803EB4807139BDDF8B0
:1005C00048C003EBC30307EB8307059B0CEB8C0CC4
:1005D0003B4406930BEB4B070EEB4E037F004B4463
:1005E00007EB4C073B44CAEB0A173B4403EB0807F5
:1005F000139BC3EBC30307EB83030593019B0E9F80
:10060000A3F500338FB1039F07EB030C089FACEBFE
:100610000707DDF838C007FB0CF74FEAE77C07EB6C
:100620001C673F12039708933B46099F77B1DDF89B
:100630001CC0C7F5807707FB0CF7DDF824C00CFB66
:100640000373DF1703EB17631B120793199F7B4399
:10065000002B01DD083300E0083BDF1703EB1773C5
:100660003D4F1B11BB4203DB7F42BB4200DC1F46F8
:100670003B461A9FDDF860C000EBC200FF896F4364
:100680006D1C2CF817300B8CAB423FF7E5AEC1E97F
:100690000046059888600698C86003980861089825
:1006A00048610798886198B21BB0BDE8F08F2DE9CA
:1006B000FF4F2549234A97B00968914200D0FEE7D1
:1006C0001A99103100250A6903924A6908928A69C9
:1006D0000792D1E901620C680592CA6806921A9ADB
:1006E0008B8B92890993CB8B0E9328E10778194B5A
:1006F000A3F5807813F807C0B444CDF844C018F8C7
:10070000076010F802A004EB4606A3F5007413F886
:100710000AC0E75D0CEB0609CDF82C9010F812909A
:1007200018F80A6007EB460613F809C014F80A70B7
:100730000CEB060E18F8096010E00000C2A507F4E3
:1007400000300240CDB5E8B55C0200201F85EB51BA
:10075000B81E1940600400204480FFFF07EB4606E6
:1007600014F8097002EB420CCDF84CC010F80C9054
:1007700013F809C00CEB060B18F8096007EB4606E6
:1007800014F8097010F8229013F809C0B444CDF899
:1007900048C018F8096002EB820C07EB460614F813
:1007A000097010F80C9013F809C00CEB060A18F841
:1007B0000960DDF84CC007EB460614F8097010F824
:1007C0001C9013F809C0B444CDF850C018F8096063
:1007D00014F809C007EB4606C2EBC207DDF82C90FF
:1007E000C75DDB5D3344139318F80730E45D0CEB11
:1007F0004306C9EBC903DDF844C003EB4307CCEB68
:10080000CC0307EB8303CEEB0E1C63440BEB8B0C8A
:1008100003EB4C03DDF848C00CEB4C0803EB48033A
:100820000AEB4A0C6344DDF850C09C44069B6344C9
:10083000DDF844C001930CEBCC039B0003EB4703B2
:10084000CEEBCE0707EB0E1703EB47030BEB4B0783
:1008500003EB0713CAEBCA0703EB081307EB0A17EE
:10086000DDF850C003EB4703CCEBCC0707EB4708A0
:1008700003EB4807139BDDF848C003EBC30307EB0A
:100880008307059B0CEB8C0C3B4406930BEB4B074F
:100890000EEB4E037F004B4407EB4C073B44CAEB87
:1008A0000A173B4403EB0807139BC3EBC30307EB97
:1008B00083030593019B0E9FA3F500338FB1039F24
:1008C00007EB030C089FACEB0707DDF838C007FB0C
:1008D0000CF74FEAE77C07EB1C673F12039708937E
:1008E0003B46099F77B1DDF81CC0C7F5807707FB51
:1008F0000CF7DDF824C00CFB0373DF1703EB176361
:100900001B120793199F7B43002B01DD083300E086
:10091000083BDF1703EB1773FE4F1B11BB4203DBD2
:100920007F42BB4200DC1F463B461A9FDDF860C099
:1009300000EBC200FF896F436D1C2CF817300B8C45
:10094000AB423FF7D3AEC1E90046059888600698F0
:10095000C86003980861089848610798886198B250
:10096000A2E62DE9FF4FEC49EC4A97B009689142A5
:1009700000D0FEE71A99103100250A6903924A69EE
:1009800008928A690792D1E901620C680592CA68E7
:1009900006921A9A8B8B92890993CB8B0E9317E14F
:1009A000DD4B07781B1D03F5807813F807C0B444AE
:1009B000CDF844C018F8076010F802A004EB460612
:1009C00003F5007413F80AC0E75D0CEB0609CDF8D7
:1009D0002C9010F8129018F80A6007EB460613F8EE
:1009E00009C014F80A700CEB060E18F8096002EB47
:1009F000420C07EB460614F80970CDF84CC010F80D
:100A00000C9013F809C00CEB060B18F8096007EB03
:100A1000460614F8097010F8229013F809C0B4447F
:100A2000CDF848C018F8096002EB820C07EB4606C7
:100A300014F8097010F80C9013F809C00CEB060AB2
:100A400018F80960DDF84CC007EB460614F8097089
:100A500010F81C9013F809C0B444CDF850C018F831
:100A6000096014F809C007EB4606C2EBC207DDF8BF
:100A70002C90C75DDB5D3344139318F80730E45DB9
:100A80000CEB4306C9EBC903DDF844C003EB430795
:100A9000CCEBCC0307EB8303CEEB0E1C63440BEBD8
:100AA0008B0C03EB4C03DDF848C00CEB4C0803EB5C
:100AB00048030AEB4A0C6344DDF850C09C44069B93
:100AC0006344DDF844C001930CEBCC039B0003EBC3
:100AD0004703CEEBCE0707EB0E1703EB47030BEBF9
:100AE0004B0703EB0713CAEBCA0703EB081307EB2B
:100AF0000A17DDF850C003EB4703CCEBCC0707EB3C
:100B0000470803EB4807139BDDF848C003EBC3031A
:100B100007EB8307059B0CEB8C0C3B4406930BEB1C
:100B20004B070EEB4E037F004B4407EB4C073B4457
:100B3000CAEB0A173B4403EB0807139BC3EBC30341
:100B400007EB83030593019B0E9FA3F500338FB141
:100B5000039F07EB030C089FACEB0707DDF838C0D9
:100B600007FB0CF74FEAE77C07EB1C673F12039784
:100B700008933B46099F77B1DDF81CC0C7F5807725
:100B800007FB0CF7DDF824C00CFB0373DF1703EB46
:100B900017631B120793199F7B43002B01DD08335A
:100BA00000E0083BDF1703EB17735A4F1B11BB42E2
:100BB00003DB7F42BB4200DC1F463B461A9FDDF849
:100BC00060C000EBC200FF896F436D1C2CF817302A
:100BD0000B8CAB423FF7E4AEC1E900460598886054
:100BE0000698C8600398086108984861079888616A
:100BF00098B259E52DE9FF4F4749484A98B009682E
:100C0000914200D0FEE71B99103100250A6902923B
:100C10004A6906928A690492D1E901620B680592D9
:100C2000CA6808921B9A94898A8B0992CA8B10927F
:100C30006BE1394A0778121D02F5807812F807C077
:100C4000B444CDF858C018F8076010F804A003EBBE
:100C5000460602F5007312F80AC0DF5D0CEB0609C8
:100C6000CDF8289010F8149018F80A6007EB4606A3
:100C700012F809C013F80A70B444CDF82CC018F863
:100C8000096004EB440A07EB460613F8097010F8F4
:100C90000A9012F809C0B444CDF838C018F80960B9
:100CA00007EB460613F8097010F8249012F809C0F3
:100CB000B444CDF83CC018F8096004EB840C07EB91
:100CC000460613F80970CDF854C010F80C9012F8CD
:100CD00009C0B444CDF844C018F8096007EB4606D3
:100CE00013F8097010F81A9012F809C00CEB060EF0
:100CF00018F80960C4EBC40C07EB460613F809703A
:100D000010F80C9012F809C00CEB060A18F80960EC
:100D100006E000004480FFFF5C020020CDB5E8B58E
:100D200007EB460613F8097010F8349012F809C062
:100D30000CEB060B18F8096013F809C007EB460620
:100D400004EBC407DDF82890C75DD25DDB5D32445B
:100D500018F807600CEB4606DDF858C0CCEB0C1712
:100D600007EB470709EBC90C07EB8C07DDF82CC034
:100D7000CCEBCC0C07EB8C07DDF838C0CCEBCC0C03
:100D80000CEB4C0C6744DDF83CC0CCEB0C1C67440E
:100D9000DDF844C00CEB8C0C07EB4C070EEB4E0C53
:100DA00007EB4C070AEB4A0C674407EB0B0C089F58
:100DB0006744DDF858C001970CEBCC07C7EB8C17E4
:100DC000C9EB891C6744DDF82CC00CEB8C0808EBE0
:100DD0008C1C6744DDF838C00CEBCC0808EB8C1C8D
:100DE0006744DDF83CC00EEBCE08CCEB0C1C0CEBE2
:100DF0008C0C6744DDF844C0CCEB0C1C0CEB8C0C69
:100E0000674408EB8E1C67440AEB8A0808EB8A1CCF
:100E10006744CBEB8B1C674402EBC20CCCEB821C0F
:100E2000BC44059FC2EB02126744DDF82CC0089752
:100E30000CEB4C07DDF838C04F440CEB4C0C4FEA80
:100E40004C08DDF83CC002EB42020CEB8C0C08EBCA
:100E50004C0C6744DDF844C0CCEB0C1C6744CEEB73
:100E6000CE0C0CEB4C0C6744CAEBCA0C07EB8C079E
:100E70000BEBCB0C07EB8C073A440592019F109AC1
:100E8000A7F57A378AB1029A02EB070C069AACEB07
:100E90000202DDF840C0069702FB0CF24FEAE27C4A
:100EA00002EB1C62121202921746099A7AB1DDF81F
:100EB00010C0C2F5807202FB0CF2DDF824C00CFBFE
:100EC0000722D71702EB17621212174604921A9ADA
:100ED0005743002F01DD103700E0103FFA1707EBF2
:100EE000D262144F5211BA4203DB7F42BA4200DC95
:100EF00017463A461B9FDDF864C0FF896F436D1C9F
:100F00002CF81720159A00EB42000A8CAA423FF7F2
:100F100090AEC1E90036059888600898C8600298CC
:100F2000086106984861049888611CB090B2BDE8D9
:100F3000F08F00004480FFFF70B49FED3F0A9608D9
:100F400029D0B446B6F1004F50D2002EC4BF05469A
:100F50000C4620DDD5ED000A94ED001A00EE810A62
:100F6000D5ED010A94ED011A00EE810AD5ED020AD1
:100F700094ED021A00EE810AD5ED030A94ED031AEE
:100F800010341035BCF1010C00EE810AE2D100EB07
:100F9000061001EB061112F0030223D0B2F1004F4C
:100FA00041D2002A1EDD001F091F12F0010F07D0D9
:100FB000D0ED010A91ED011A001D091D00EE810A14
:100FC00052080FD0D0ED010A91ED011A00EE810A0E
:100FD000D0ED020A91ED021A08300831521E00EEDF
:100FE000810AEFD183ED000A70BC7047D0ED000A92
:100FF00091ED001A00EE810AD0ED010A91ED011A7F
:1010000000EE810AD0ED020A91ED021A00EE810A8B
:10101000D0ED030A91ED031A10301031761E00EE68
:10102000810AE3D1B7E7F0EC010A521EB1EC011AD4
:1010300000EE810AF7D1D5E7000000005FEA930CCB
:1010400026D000BF90ED000AD1ED000A90ED012AF4
:1010500091ED011A60EE201A90ED020A22EE012AAB
:10106000D1ED020A90ED031AC2ED001AD1ED031A78
:1010700020EE200A82ED012A61EE210A82ED020AA9
:101080001030C2ED030A10311032BCF1010CD9D17D
:1010900013F0030308BF7047B3F1004F2CD2002BAD
:1010A000D8BF7047001F091F121F13F0010F0AD08D
:1010B00090ED010AD1ED010A001D091D20EE200A64
:1010C00082ED010A121D5B0808BF704790ED010A0E
:1010D000D1ED010A20EE200A82ED010A90ED020A0C
:1010E000D1ED020A0830083120EE200A82ED020A12
:1010F00008325B1EEAD17047B0EC010A5B1EF1ECCE
:10110000010A20EE200AA2EC010AF5D17047000086
:101110005FEA930C26D000BFD0ED003A91ED001AA3
:10112000D0ED010A91ED013A33EEC11AD0ED022A59
:1011300070EEC30A91ED022A90ED030AD1ED031A75
:1011400082ED001AC2ED010A72EEC20A30EE610AA7
:101150001030C2ED020A82ED030A10311032BCF1E8
:10116000010CD9D113F0030308BF7047B3F1004F4E
:101170002CD2002BD8BF7047001F091F121F13F07D
:10118000010F0AD090ED010AD1ED010A001D091DE1
:1011900030EE600A82ED010A121D5B0808BF70473D
:1011A00090ED010AD1ED010A30EE600A82ED010AEC
:1011B00090ED020AD1ED020A0830083130EE600AE3
:1011C00082ED020A08325B1EEAD17047B0EC010AD8
:1011D0005B1EF1EC010A30EE600AA2EC010AF5D1C7
:1011E000704700009FED3D0A5FEA920C57D000BFA8
:1011F000D0ED000A90ED011A0B1D60EEA00A083038
:1012000041EE010AF5EEC00AF1EE10FAA6BFB1EE0A
:10121000E01A81ED001A81ED000AD0ED000A90ED90
:10122000011A191D60EEA00A083041EE010AF5EE20
:10123000C00AF1EE10FAA6BFB1EEE01A83ED001A73
:1012400083ED000AD0ED000A90ED011A0B1D60EE4F
:10125000A00A083041EE010AF5EEC00AF1EE10FADC
:10126000A6BFB1EEE01A81ED001A81ED000A90ED03
:10127000001AD0ED010A191D21EE011A083000EE06
:10128000A01AB5EEC01AF1EE10FAA6BFF1EEC10A2F
:10129000C3ED000A83ED000ABCF1010CA8D112F0E5
:1012A000030208BF704700BFD0ED000A90ED011A9D
:1012B0000B4660EEA00A091D083041EE010AF5EE6A
:1012C000C00AF1EE10FAA6BFB1EEE01A83ED001AE3
:1012D00083ED000A521EE7D17047000000000000B5
:1012E0002DE9F04106462DED028B8C46008873688F
:1012F00001EB80044508274601EB850004EB8502DD
:101300005FEA95087DD000BFD1ED003AD4ED001A18
:1013100091ED012A94ED013A73EEA16A91ED024A32
:1013200091ED031AD4ED022AD4ED035A90ED008A10
:1013300090ED017A90ED020A90ED036A92ED005A69
:10134000D2ED014AD2ED027AD2ED030AC1ED006A74
:1013500072EE036A73EEE13A74EEC71AC1ED016AE8
:1013600074EE226A74EE622A37EEC04AC1ED026A58
:1013700071EE256AC1ED036A72EE436A31EE652AA9
:1013800038EE051A35EE483A80ED001A37EE241A89
:1013900080ED011A30EE271A80ED021A36EE201A7F
:1013A00080ED031A30EEC61A93ED000AD3ED010A60
:1013B00063EE804A26EEA05A66EE805A63EEA03AAB
:1013C00074EE854A75EEE33AC4ED004A63EE204AB6
:1013D000C4ED013A61EE803A61EEA00A23EE000A04
:1013E00074EEE31A30EE800AC2ED001A82ED010AB3
:1013F00093ED020AD3ED030A62EE803A22EE203A20
:1014000000E024E062EEA01A22EE002A73EE832AA6
:101410001030103172EE611AC4ED022A24EE202A37
:10142000C4ED031A61EE001A61EE200A24EE000AF0
:10143000103332EE611A103430EE800A82ED021A57
:1014400082ED030A1032B8F101087FF45DAF29463E
:1014500002236046726800F03BFB72682946BDECCF
:10146000028B3846BDE8F041022300F031BB2DE984
:10147000F34F2DED048B87B00B980088470801EBE4
:10148000870000EB870606EB8705CDE90056DDF8FF
:101490002C80A5F1040C0CEB8703CDE902014FEA87
:1014A0005709D8F804800427CDE90497D1ED000A44
:1014B00096ED000A90ED011A95ED013A70EE802A42
:1014C00070EEC03AD1ED010A96ED010A041F321FF9
:1014D00030EE802A70EEC01A31EE230AD0ED000AF9
:1014E00032EE415A33EEC11A30EE434A71EEE04A11
:1014F00095ED000A70EEA11A35EE435A74EE805A4B
:1015000072EEE04A70EEA20A71EEC01A31EE031AD2
:1015100074EEC04A30EE800A062708F1080A81ED11
:10152000000A90ED010AD5ED010A08F1100B30EE2A
:10153000020A08F1180830EE200A81ED010A80ED58
:10154000004AC0ED015AC6ED004A86ED015A85ED0C
:10155000001AC5ED011ADDF8109008300831083581
:101560000836A9F102095FEA590900F0078100BFB6
:10157000D1ED000A96ED000AD0ED011AD5ED014A31
:1015800030EE802A30EEC05AD1ED010A96ED010A04
:1015900070EE802A30EEC01A31EE850AD5ED000AD1
:1015A00030EE644A90ED000A31EE403A30EE011A16
:1015B00073EE205A32EE403A30EE020A31EE601AF3
:1015C00073EE603A30EE200A32EEE13A75EE611ABF
:1015D00081ED000A90ED010AD5ED010A33EE643A7F
:1015E00030EE220A71EEA41A30EE200A81ED010AD3
:1015F000D4ED002ADCED004A54ED010A1CED010A8D
:1016000032EEA47A32EEE49A72EEE42A52ED018AC6
:1016100070EE807A30EEC02A72EEE82AD2ED000A2F
:1016200093ED000A13ED018A30EEC05A72EE886A1B
:1016300077EEE82A35EE026A32EEC85A77EE602A73
:1016400072EEC04A70EEC02A70EE870A72EEC22AAD
:1016500030EE800A38EE682A84ED000A12ED010AA5
:1016600053ED010A32EE492A30EE270A30EE200A05
:1016700004ED010A9AED000ADAED010A64EE007A3F
:1016800025EEA07A65EE805A24EE204A37EE877A5E
:1016900035EEC44A80ED007A80ED014A26EEA04A7C
:1016A00066EE005A66EE200A26EE800A083034EE16
:1016B000654A083130EE800A82ED004A083C02EDAE
:1016C000010A9BED000ADBED010ADDF814E023EED0
:1016D000804A63EE205A23EE003A63EEA03A083ABD
:1016E00034EE254A0BEB8E0B33EE633A86ED004A5F
:1016F0000AF1080A86ED013AB1EE643A083663EE63
:10170000003A25EE203A25EE000A64EEA00A33EEF8
:10171000C33A30EEC00A8CED003A0CED010A98EDA8
:10172000000AD8ED010A08EB870861EE803A21EE45
:10173000203A21EE001A61EEA01AACF1080C33EE4B
:10174000833A31EE611A85ED003A62EE801A85ED3A
:10175000011A22EE201A62EEA00A22EE000A0835D3
:1017600031EE611A30EE800A83ED001A03ED010AB2
:10177000083BB9F101097FF4FBAE00BFD1ED000ACF
:1017800096ED000A91ED011AD0ED015A30EE802A53
:1017900070EEC00A96ED010A95ED015A042371EE30
:1017A000001A71EE404A35EEA00A90ED001A31EEB3
:1017B000E54A70EEE50A30EE453A95ED000A34EE62
:1017C000454A30EE855A74EEC12A72EE413A71EE06
:1017D000240A31EE021A72EE802A73EEC03A70EEDD
:1017E000C00A31EE000A81ED000A90ED010A95ED84
:1017F000011A30EE210A30EE010A81ED010A9AED5C
:10180000000A9AED011A63EE001A22EE812A22EEF6
:10181000800A23EE011A71EE821A30EE410AC0ED01
:10182000001A80ED010A9BED000A9BED011A63EEA0
:10183000801A24EE012A24EE000A23EE811A71EEAA
:10184000821A30EE410AC6ED001A86ED010A98EDC3
:10185000010A98ED001A60EE801A25EE012A60EE6A
:10186000810A25EE000A32EE211A30EEC00A85ED1B
:10187000001A85ED010A0B984268DDE9030100F0CA
:1018800027F90B98042304994268029800F020F984
:101890000B98042304994268019800F019F90B98F9
:1018A000049904234268009807B0BDEC048B02B091
:1018B000BDE8F04F00F00CB92DE9F04104889846DE
:1018C00017460D460646012A20D1281DF4B1A0F185
:1018D000080114F0010F06D091ED020AB1EE400AA2
:1018E00081ED020A08315FEA540C0FD091ED020A33
:1018F000B1EE400A81ED020A91ED040AB1EE400A10
:1019000081ED040A1031BCF1010CEFD1B4F5807FF8
:101910001BD008DC102C13D0202C16D0402C19D052
:10192000802C0DD01CE0B4F5007F13D0B4F5806F8F
:1019300006D0B4F5006F08D0B4F5805F0AD00FE090
:1019400029463046FFF7CCFC0AE029463046FFF72F
:101950008EFD05E0214601232846726800F0B8F8A4
:10196000B8F1000F04D0B1892846B268FEF70CFC2C
:10197000012F18BFBDE8F08100EE104AB7EE001A43
:10198000002CF8EE400A81EE200A08BFBDE8F08185
:10199000A5F1080014F0010F0ED0D0ED020A60EEA0
:1019A000800AC0ED020AD0ED030AF1EE600A60EE93
:1019B000800AC0ED030A0830610808BFBDE8F08165
:1019C000D0ED020A60EE800AC0ED020AD0ED030AF3
:1019D000F1EE600A60EE800AC0ED030AD0ED040A61
:1019E00060EE800AC0ED040AD0ED050AF1EE600A4F
:1019F00060EE800AC0ED050A1030491EE0D1BDE856
:101A0000F081000010B49FED310A5FEA910C1ED006
:101A1000BCF1004F3DD2BCF1000FC4BF0346644689
:101A200015DD00BFD3ED000A00EEA00AD3ED010AD8
:101A300000EEA00AD3ED020A00EEA00AD3ED030ADD
:101A40001033641E00EEA00AECD100EB0C1011F074
:101A500003011AD0B1F1004F30D2002915DD001F6B
:101A600011F0010F04D0D0ED010A001D00EEA00A14
:101A700049080AD0D0ED010A00EEA00AD0ED020A12
:101A80000830491E00EEA00AF4D182ED000A10BC15
:101A90007047D0ED000A00EEA00AD0ED010A00EE7A
:101AA000A00AD0ED020A00EEA00AD0ED030A103021
:101AB000BCF1010C00EEA00AEBD1C8E7F0EC010A82
:101AC000491E00EEA00AF9D1DFE700000000000087
:101AD0002DE9FF4F2DED108B82B09FEDFEFA0B46E6
:101AE0001C46DB084FF0000C0CEB030505EB03086C
:101AF00008EB030909EB030606EB030A00EBCC072E
:101B000000EBC60697ED001AD6ED000A0AEB030BB0
:101B100000EBC50500EBCA0A31EE200A71EE601A2F
:101B200095ED002ADAED000A0BEB030E00EBC80876
:101B300032EE201A00EBCB0B32EE602AD8ED002AF1
:101B4000DBED000A00EBC90900EBCE0E99ED003A7F
:101B50009EED004A72EEA03A72EEE02A73EE040A9D
:101B600033EE443A70EE636A70EE233A31EE600A67
:101B700071EE200A33EEA01A73EEE00A87ED001A28
:101B8000C6ED000A97ED011AD6ED010AD5ED013A2E
:101B900098ED014A31EE206A71EE600A9AED011A61
:101BA00099ED015A73EE814A73EEC13A9BED011A29
:101BB00034EE017A34EE411A9EED014A75EE045A74
:101BC00035EE444A36EE475A36EE076A34EEE57A89
:101BD00074EEA54A76EE245A76EE644AC7ED015AB1
:101BE000C6ED014A76EE874AC8ED004A76EEC74A4E
:101BF000CBED004A75EE404A35EE000AC8ED014AC9
:101C00008BED010A32EE430A32EE032A20EE0F0A70
:101C100062EE0F4A33EEC42AA4448C4522EE0F3AFA
:101C200033EE842A30EEC34A62EE0F3A30EE833A46
:101C300031EEC02A31EE800A71EE630A31EE231ACA
:101C400072EEE41A72EEA42A70EE013A30EE410A06
:101C5000C5ED003A8EED000A32EE200A8AED000A48
:101C600032EE600A89ED000A33EE620A85ED010A60
:101C700033EE220A8EED010A34EE610A8AED010A82
:101C800034EE210A89ED010AFFF42EAF082B3FBF85
:101C900002B0BDEC108B04B0BDE8F08F4FF0000C2B
:101CA000CDF804C04FF0010CCDF800C0DDF804C041
:101CB000159DAC444FEA8C0505EB0C07CDF804C02C
:101CC00007EB0C094FEA4C0808EB0C0609EB0C0A71
:101CD00002EBCC0C02EBC80802EBC60602EBC50512
:101CE00002EBC70702EBC90902EBCA0A9CED00DA56
:101CF0009CED018AD8ED00CA96ED00CAD5ED00BA78
:101D000097ED00BAD9ED00AADAED008AD8ED017A94
:101D100096ED01AA95ED017AD7ED016A99ED016A78
:101D2000DAED019ADDF800C00CEB0307FD1805EBB6
:101D3000030A0AEB030808EB030606EB030B00EBB0
:101D4000CC0900EBC808D9ED000A98ED000A00EBB9
:101D5000C70700EBC606D7ED001A96ED001A70EE25
:101D6000803A0BEB030E70EEC00A31EE810A00EBF5
:101D7000C50500EBCB0B31EEC11AD5ED001A9BED7A
:101D8000002A00EBCA0A00EBCE0E31EE824A71EE59
:101D9000C21A9AED002ADEED002A32EE223A32EE25
:101DA000622A73EEC42A73EE843A30EE435A30EE60
:101DB000030A33EE803A73EEC0DA89ED003A99ED0A
:101DC000010A98ED013AD7ED013A95ED014A70EE1E
:101DD00003EA30EE433A96ED010A9AED01EADEEDB0
:101DE000014A33EE809A73EEC03A9BED010A74EE1D
:101DF000005A34EE404A3EEE240A7EEE644A3EEE3D
:101E0000E5EA7EEEA55A79EE40EA39EE009A32EE26
:101E1000AE0A72EEEE2A75EE89EA35EEC99A7EEECA
:101E2000455AC9ED01EA3EEE055A2BEEADEA67EEE2
:101E300009EA2BEE899A67EE2DDA3EEE2EEA39EEAC
:101E40006D9A88ED00EA67EEA5DA88ED019A2CEE2E
:101E5000809A6CEEA55A27EE800A39EE2D9A35EE5F
:101E6000C00A85ED009A66EE055A85ED010A2AEE54
:101E7000A20A2AEE855A66EE222A30EE250A8BED5A
:101E8000000A35EE620A73EEA42A8BED010A31EEE8
:101E9000420A31EE021A33EEE42A62EE8F3A20EE65
:101EA0000F0A21EE0F1A22EE0F2A70EEC02A30EE32
:101EB000800A71EEC10A71EE811A33EE421A33EED6
:101EC000022A34EE633A34EE234A70EE043A30EEDE
:101ED000444A01E0F304353F72EE834A72EEC32AAE
:101EE00032EE613A32EE210A71EE601A71EE200A8A
:101EF0002DEE232A28EE031A2DEE033A68EE233A3C
:101F0000A44432EE011A28EE842A8C4587ED001A8B
:101F100033EE631A29EE843A87ED011A29EE801A0E
:101F200028EE800A32EE011A30EE430A26EEA42A89
:101F30008EED001A8EED010A2BEE240A26EEA11A70
:101F40006BEE211A30EE010A2CEE221A86ED000A01
:101F500031EEC20A6AEE221A86ED010A2AEE200A42
:101F60006CEE200A31EE000A8AED000A30EEE10A3A
:101F70008AED010AFFF4D8AEDDF800C00CF1010CC7
:101F8000CDF800C063453FF691AEDDF854C04FF682
:101F9000FF7404EACC0CCDF854C0072B3FF6A0AD7B
:101FA00002B0BDEC108B04B0BDE8F08F40EA010335
:101FB0009B0703D009E008C9121F08C0042AFAD2FF
:101FC00003E011F8013B00F8013B521EF9D27047C3
:101FD000D2B201E000F8012B491EFBD2704700226B
:101FE000F6E710B513460A4604461946FFF7F0FF18
:101FF000204610BD421C10F8011B0029FBD1801A9D
:102000007047420005D0C0F3C7525242914201DCF2
:102010000020704700EBC15070472DE9FE4F80460D
:1020200081EA0300C00F0C46009021F0004123F02C
:102030000045B8EB0200A94105D240462146904632
:102040001C460B46024623F00040104347D0270DA4
:10205000C7F30A00C3F30A510290401A01904028C6
:102060006BDAC3F3130040F4801B0098924620B152
:102070000023D2EB030A63EB0B0B01985946C0F126
:102080004002504600F01FFA06460D46504659469B
:10209000019A00F037FA10EB08006141002487EA4A
:1020A000115284EAE7731A4340D0009A62B3019A4E
:1020B000012A4FEA075215DC001B61EB02014FF0C9
:1020C000004202EA0752CDE90042001C41F58011AE
:1020D00032462B4600F06EFA03B0BDE8F08F404662
:1020E0002146F9E7001B61EB0201001C41F580135A
:1020F00000185B412018A2F5001747EB030140EAE6
:10210000D570B6196D4111E06D084FEA360645EA03
:10211000C0754FEA0752001B61EB0201001C41F53C
:10212000801149084FEA30000019514132462B46D0
:1021300003B0BDE8F04F00F02EBA00980122400035
:102140000023D0EB020263EBE073009821464FEAD4
:10215000E074B8EB000061EB0401E9E783F00043B1
:102160005BE781F0004158E72DE9FE4F81EA030467
:1021700004F0004421F0004100944FF0000B23F0E4
:10218000004350EA01045ED052EA03045BD0C3F37B
:102190000A54C1F30A552C44A4F2F3340194A0FB71
:1021A0000254C1F3130141F48011C3F3130343F448
:1021B000801301FB024400FB034E840A970A44EAA1
:1021C000815447EA8357A4FB076802958D0A05FBF3
:1021D00007854FEA932C04FB0C542705029D4FEA18
:1021E000065847EA1637B5EB08056EEB070C870E65
:1021F000920E47EA811742EA8312A7FB0201B6EB6F
:102200000B0164EB00042B0D43EA0C335E1844EB26
:102210001C50DA465146E7FB0201C5F313044FEAAE
:102220000B3343EA14534FEA0432019C43EA06039A
:10223000A4F10C040294009CCDE900B400F0BAF9BA
:1022400003B0BDE8F08F00200146F9E72DE9F04D1D
:1022500081EA030404F0004B21F0004514464FF0DE
:10226000000A23F0004150EA050220D054EA01029E
:102270001DD0C5F30A570246C5F31303C1F313007B
:10228000C1F30A5640F4801543F48013A7EB060807
:10229000101BD64608F2FD3873EB050002D308F197
:1022A000010801E092185B41B8F1000F03DA002049
:1022B0000146BDE8F08D00204FF4801106468446AB
:1022C0000EE0171B73EB050705D3121B63EB050329
:1022D00006434CEA010C49084FEA300092185B4172
:1022E00050EA0107EDD152EA030012D082EA04005D
:1022F00083EA0501084305D0101BAB4106D2012239
:10230000002306E000224FF0004302E06FF00102DC
:1023100053101AEB06004CEB085110EB0A0041EB8E
:102320000B01BDE8F04D00F036B90EB5C10F80EAE3
:10233000E0700844CA07002140F233438DE80E00E4
:102340000A460B4600F036F903B000BD0EB540F268
:10235000334102910021CDE900110A460B4600F0FD
:1023600029F903B000BD70B5C1F30A5201F0004570
:102370000024C1F3130140F2FF3341F480119A426B
:1023800001DA002070BD40F233439A42A2F2334298
:1023900003DC524200F0A6F800E090402C43F1D05C
:1023A000404270BDC1F30A5210B5C1F3130140F2AF
:1023B000FF3341F480119A4201DA002010BD40F24F
:1023C00033439A42A2F2334203DC524200F08AF8CD
:1023D00010BD904010BD00F0004230F000400AD027
:1023E000C10D01F56071C0F3160042EA0151C20847
:1023F00040071143704700200146704730B5041E66
:1024000071F1000404DB4FF00044404264EB010131
:10241000141E73F1000405DB1C464FF000435242CA
:1024200063EB0403994208BF904230BD01F00043C2
:1024300030B421F0004150EA010206D00A0DA2F5A5
:102440006072C1F31301002A02DC30BC0020704727
:10245000440F44EAC104C100E01830BC00EBC25094
:1024600000F062B82DE9F05F0546002092469B46D9
:1024700088460646814640241BE02846414647469A
:10248000224600F02FF853465A46C01A914110D305
:1024900011461846224600F016F82D1A67EB01087F
:1024A0004F4622460120002100F00DF817EB0009ED
:1024B0004E41201EA4F10104DFDC484631462A4685
:1024C0004346BDE8F09F202A04DB203A00FA02F1DF
:1024D000002070479140C2F1200320FA03F3194312
:1024E00090407047202A04DB203A21FA02F00021B4
:1024F000704721FA02F3D040C2F120029140084314
:1025000019467047202A06DBCB17203A41FA02F021
:1025100043EAE07306E041FA02F3D040C2F1200240
:1025200091400843194670470029A8BF7047401CD6
:10253000490008BF20F00100704710B4B0FA80FCD9
:1025400000FA0CF050EA010404BF10BC704749B116
:10255000CCF1200421FA04F411FA0CF118BF012186
:1025600021430843A3EB0C01CB1D4FEA00614FEA66
:10257000102042BF002010BC704700EBC350104435
:102580000029A4BF10BC7047401C490008BF20F0C0
:10259000010010BC704710B5141E73F1000408DA76
:1025A000401C41F1000192185B411A4301D120F017
:1025B000010010BD2DE9F04D92469B4611B1B1FAD4
:1025C00081F202E0B0FA80F220329046FFF77BFF02
:1025D00004460F4640EA0A0041EA0B0153465A46B8
:1025E000084313D0114653EA010019D0C8F1400244
:1025F0005046FFF777FF05460E465046594642467D
:10260000FFF761FF084305D0012004E0204639466A
:10261000BDE8F08D0020054346EAE0762C433743C1
:102620000A986305E40AA0EB08000022FD0A44EAC8
:1026300047540A3002D500200146E9E70105101988
:102640006941DDE9084500196941BDE8F04DA2E79F
:1026500070B521F0004303430CD0C1F30A550024A8
:10266000D5EB040564EB0403D617AD1AB34102DBC6
:102670000020014670BD201841EB025170BD0000E2
:1026800030B5041E71F1000404DB4FF000444042F9
:1026900064EB0101141E73F1000405DB1C464FF0CE
:1026A0000043524263EB04038B4208BF824230BDB9
:1026B000064C074D06E0E06840F0010394E807008F
:1026C00098471034AC42F6D3FDF7C2FDAC5C03086A
:1026D000CC5C03082DE9F04D00231A461B1A8A41F1
:1026E00003DB00200146BDE8F08DC1F30A52C1F3BF
:1026F000130141F480154FF0000BD10702D10018EF
:102700006D41521E0027044640F2FF11384601EB8E
:10271000620A3E468046024600204FF48011FFF7D1
:10272000E1FEC2197141BB1846EB0100B4EB030C8A
:1027300075EB000C04D3E41A65EB000517460E4652
:10274000241908F101006D4180463428E3DDF919B0
:1027500046EB0600091BA84103D24FF0FF32134697
:1027600001E0002213461BEB070046EB0A51BDE8CF
:10277000F04DFFF710BF70B58C1810F8015B15F025
:10278000070301D110F8013B2A1106D110F8012BE3
:1027900003E010F8016B01F8016B5B1EF9D12B0708
:1027A00005D40023521E0DD401F8013BFAE710F8BE
:1027B000013BCB1A921C03E013F8015B01F8015BAB
:1027C000521EF9D5A142D8D3002070BD10B50548DE
:1027D00003F0EFFE044803F0ECFE044803F0E9FECA
:1027E00010BD000084050020CC0500201406002048
:1027F0005A49096821F44031594AC2F80413114674
:10280000D1F8041342681143544A116001684968C1
:1028100021F480710268516001684A68016942EAE6
:102820000121026851600168496821F04071026825
:10283000516001684968826811430268516001680B
:10284000896821F400610268916001688968C26842
:10285000114302689160434A816A914218D001682D
:10286000896821F070610268916001688968826AF4
:102870001143026891600168896821F04051026843
:10288000916001688968C26A1143026891600BE037
:102890000168896821F07061026891600168896847
:1028A00021F04051026891600168896821F00201BD
:1028B0000268916001688A68816942EA41010268A0
:1028C0009160016AD1B10168496841F40061026810
:1028D00051600168496821F46041026851600168F3
:1028E0004A68416A491E4FF4604393FAA3F3B3FA6E
:1028F00083F399400A4301684A6005E0016849682A
:1029000021F40061026851600168C96A21F4700114
:102910000268D1620168CA6A818B491E42EA01518C
:102920000268D1620168896821F4007102689160CF
:1029300001688A68016B42EA41210268916001687E
:10294000896821F480610268916001688A68416940
:1029500042EA81210268916070470000042301402F
:10296000002001400100000F10B5024803F096FF5F
:1029700010BD00001406002070B50446002511E0CB
:102980000C480078012802D00B48007828B14FF499
:102990007A7094FBF0F0401B70BD4FF47A700DF02C
:1029A00045F96D1C4FF47A7094FBF0F0A842E7DC17
:1029B0000020F1E7F4000020A700002070B50446D5
:1029C000002512E00D48007828B94FF47A7094FB86
:1029D000F0F0401B70BD4FF47A700DF027F90848F5
:1029E0000068401C064908606D1C4FF47A7094FB27
:1029F000F0F0A842E6DC0020ECE70000F400002044
:102A0000A801002000BF00BF0024002500260021EF
:102A100001200AF0E1FD002102200AF0DDFD002185
:102A200003200AF0D9FD002104200AF0D5FD002082
:102A300006F06AFF002003F068F902E00A200DF0BA
:102A4000F5F8FE4800780028F8D0FD488089022873
:102A500002D10DF075FC02E00020FA4908704FF435
:102A60007A700DF0E3F80020F7490870F749086024
:102A7000F7490860F749C870F749087000BF64203B
:102A80000DF0D4F8EE488089022809D10DF058FCE9
:102A90000120EC49087002F095FA0020E94908701D
:102AA000E748808902280AD10DF04AFC0120E54957
:102AB0000870022002F086FA0020E2490870E0481F
:102AC000808902280AD10DF03BFC0120DD49087005
:102AD000032002F077FA0020DA490870D84880898C
:102AE00002280BD10DF02CFC0120D64908700420DF
:102AF00002F068FA0020D3490870C0E7D748007890
:102B0000F0B9D448007801281AD1D5480078B8B96E
:102B1000D4480079A0B9CA48C08910B9C84880898A
:102B200070B90320D049087002E064200DF07EF8EF
:102B3000CD4800780328F8D04FF4AF700DF076F848
:102B4000C6480078A8B1BE48C08990B9C14800788D
:102B500078B9C648407810280BD1C548007840B9EC
:102B60006D1C44F6A800854204D90120C1490870B3
:102B700000E00025BF48007808B30520B14908707F
:102B800008F048FF0020B24908604EF660200DF0C2
:102B90004DF80020AF49C870B6490870AD490870BB
:102BA000B5490860A7490870AC490870AA4908707F
:102BB0004860A64908604FF4FA600DF037F8A04865
:102BC000C08990B9A348007878B9A548007860B961
:102BD000641C44F25060844208D900249848C0899B
:102BE00020B901209649C88100E000249C48007863
:102BF00038B9A248007920B99C484178904880F8BB
:102C000025109748007800287ED19C48007900283C
:102C1000FAD1944800790028F6D18E48007801282E
:102C2000F2D18748C089C0B100208849086088492E
:102C30000860202182481430FFF7D1F945F2AA50EC
:102C40007F4948610846017B017600207C49C881A4
:102C5000814948600870814908707948C08900B18D
:102C60000DE782484078102800D108E779480078BD
:102C700000B904E772488089012800D1FFE60120ED
:102C80007449C8706F48007848B97D48007818B119
:102C900004207C49087002E001207A4908706F48DE
:102CA0000078002873D101206B49087002E064208D
:102CB0000CF0BCFF6C4800780328F8D06048C0894D
:102CC00010B109F023FFDAE6002061490860012015
:102CD0005C4908704FF47A700CF0A8FF6A4840789D
:102CE00062494978884213D196B9604840780128F2
:102CF00003D05E48407802280AD101265B488078DC
:102D00005A494870102000E041E25F49487001E0F4
:102D100006B100265548407830B1012815D0022868
:102D200024D0032845D133E0012104200AF054FCCB
:102D3000434890F82100401CC1B2414880F821105E
:102D40004FF4FA700CF072FF37E0012103200AF013
:102D500043FC3B4890F82200401CC1B2384880F840
:102D600022104FF4FA700CF061FF26E001210220DE
:102D70000AF032FC324890F82300401CC1B23048BF
:102D800080F823104FF4FA700CF050FF15E00CE1BE
:102D9000012108460AF020FC294890F82400401C34
:102DA000C1B2274880F824104FF4FA700CF03EFFAF
:102DB00003E000202749C87061E600BF3148007871
:102DC00004287CD12948807830B1012815D0022808
:102DD00024D003286ED15CE0012104200AF0FCFB22
:102DE000174890F82400401CC1B2154880F8241000
:102DF0004FF4FA700CF01AFF60E0012103200AF092
:102E0000EBFB0F4890F82300401CC1B20C4880F83F
:102E100023104FF4FA700CF009FF4FE0012102205B
:102E20000AF0DAFB064890F82200401CC1B20448C0
:102E300080F822104FF4FA7028E040E0B101002041
:102E400098FF0020B6010020B7010020AC0100204F
:102E5000A8010020F4000020DCFB0020B0010020CD
:102E6000A7000020B800002042010020D40000206C
:102E7000A6000020B8010020A40100209C01002031
:102E8000F9000020C2010020DC0000200CF0CEFE82
:102E900014E0012108460AF09FFBDA4890F821006F
:102EA000401CC1B2D74880F821104FF4FA700CF0E2
:102EB000BDFE03E00020D449C870E0E500BF00205B
:102EC00002F023FF012006F01FFD4FF496700CF076
:102ED000ADFE0120CD490870CD480078022810D100
:102EE0004EF66020FFF76AFDF8B10020C649C870B1
:102EF00009F00CFE0120C54908700220C549087080
:102F0000BDE5C3480078012815D1BE48008920B925
:102F100047F230500CF08AFE3EE0BA4800890128A2
:102F200004D14AF6C8700CF081FE35E04EF6602000
:102F30000CF07CFE30E0B6480078032815D1B1488B
:102F4000008910B947F2305708E0AE4800890128DF
:102F500002D14AF6C87701E04EF660270020AE495C
:102F600008603846FFF72AFD16E0A94800780428D3
:102F700012D1A448008910B94EF6602706E0A14896
:102F80000089012801D1A54F00E0A54F0020A249EA
:102F9000086038460CF04AFEA2480078401CA1495F
:102FA00008700020A049087048609E4800780128F9
:102FB0004FD19448C08910B109F0A8FD5FE5032006
:102FC00094490870012098490870002006F09CFC84
:102FD000002002F09AFE01208C4908708C4800788D
:102FE000022811D144F62060FFF7E8FC40B300202E
:102FF00006F08AFC002002F088FE04208549087053
:103000000120824908703AE581480078012804D1FE
:103010004EF66020FFF7B0FC12E07D4800780328F0
:1030200004D14EF66020FFF7A7FC09E0784800784D
:10303000042805D1002006F067FC002002F065FEA0
:1030400078480078401C774908700020764908705D
:10305000486074480078022857D16A48C08910B186
:1030600009F054FD0BE56F480078401C6D4908706D
:1030700000206E490870FFF777FC4FF4FA700CF0EF
:10308000D5FD6B4800680A2805D26A48007840F0F0
:1030900001006849087005205E4908700021012080
:1030A0000AF09AFA002102200AF096FA0021032081
:1030B0000AF092FA002104200AF08EFA002107207B
:1030C0000AF08AFA002006F01FFC51480078032815
:1030D0000CD15149096801EB4102C2EBC11140F624
:1030E000B83202EBC1000CF0A1FD0BE048480078BB
:1030F000042803D14A480CF099FD03E04EF6602005
:103100000CF094FD002044490860464800780328EC
:1031100077D10020484908603A48C08910B109F0C9
:10312000F5FCACE409F0F2FC06203A4908700020F6
:10313000424908803449C8703548007802280DD1CA
:1031400044F62060FFF73AFC40B100202E49C870D9
:1031500009F0DCFC01202D49087090E4314800782A
:10316000401C3049087000202749C8702E4908705B
:103170004860334833490A6802604968416000206A
:103180002D490860234908702649087039E02E4807
:103190000078A0B301202D4908702D48007850B167
:1031A00003202C49087002E064200CF03FFD294800
:1031B00000780328F8D007E024480078022800D1DE
:1031C00003E064200CF032FDF6E700BF20480078F1
:1031D00030B1052007F09EFE00201D49087006E072
:1031E0001D48007801F0EEFE00201749087000200D
:1031F0001649087040F6B8300CF018FD01E0FFE702
:1032000000BF3CE498FF0020F4000020B70100203C
:10321000C2010020B6010020A8010020905F01003B
:10322000C0D40100B0010020DCFB0020B30100206D
:1032300094FB0020C0010020AC010020BC01002054
:10324000DC000020D4000020A7000020C1010020E5
:10325000C000002042010020A800002010B5044654
:1032600024B9002101200AF0B7F911E0012C04D1A2
:10327000002102200AF0B0F90AE0022C04D100215A
:1032800003200AF0A9F903E0002104200AF0A4F9C0
:1032900010BD10B5044624B9012108460AF09CF976
:1032A00011E0012C04D1012102200AF095F90AE075
:1032B000022C04D1012103200AF08EF903E0012140
:1032C00004200AF089F910BD10B50020FFF7C6FFF1
:1032D0000120FFF7C3FF0220FFF7C0FF0320FFF725
:1032E000BDFF10BD2DE9F0410027002540F6FF7617
:1032F000002411E0D24830F81400A84202DDD04882
:1033000030F81450CE4830F81400B04202DACC48FD
:1033100030F81460601CC4B2142CEBDB002421E0F4
:10332000C74830F814100246601C32F81000814281
:103330000ADD104630F81410601C32F81000801CB2
:1033400081420DDD01270FE0BD4830F81400801CDC
:10335000BB4A611C32F81110884201DA012703E0F0
:10336000601CC4B2132CDBDB00BFA81B002801DBF0
:10337000014600E04142032901DB002F7BD10120FF
:10338000B0490870AE48C08CAF4908800846008834
:10339000AE490988401A00B2AD490880AD480078AE
:1033A000B0BBAD48007801281FD10846B0F9000035
:1033B00028280ADB0020A94908700120A5490870C7
:1033C000A2480088A649088009E0012100200AF0EF
:1033D000D9F90220A34908700020A34908609C483D
:1033E000B0F90000A1490880EEE09948B0F900006A
:1033F00010F10A0FF8DC012100200AF0C3F90220C5
:103400009849087000209849086099490880DBE0D5
:10341000FFE78F48B0F90000012805DC8C48B0F9BF
:103420000000B0F1FF3F07DA90480088884909881A
:10343000084400B28D4908808548B0F9000010F1B9
:10344000280F51DC00F056FA8848B0F9000028280F
:1034500003DA00208749087002E0012085490870DE
:10346000794801887E4800882830814204DA0020AB
:103470008149087003E0C3E001207F4908707D485E
:10348000007830B97548007818B900207149087083
:1034900010E079480078012806D17048007818B902
:1034A00001206C49087005E07448007810B90020CC
:1034B0006849087072480078002895D165480078FE
:1034C00060B9012100200AF05DF902206549087009
:1034D0000020654908606649088075E064480088F6
:1034E000401C634908806FE05948B0F90000052886
:1034F00005DD5F480088401C5D49088064E0544851
:10350000B0F9000010F1050F4BDA5848B0F900008F
:10351000282803DA00205749087002E001205549A5
:103520000870494801884E4800882830814203DAF3
:1035300000205149087002E001204F4908704D48B1
:10354000007888B94548007870B900204149087072
:1035500001210AF017F9022042490870002042496F
:103560000860434908802FE04348007801280BD1C8
:103570003A48007840B90120364908703C48008834
:10358000401C3B4908801FE000203249087001219F
:103590000AF0F8F802203349087000203249086028
:1035A00012E038480188384800881430814206DC2F
:1035B00034480088143034490988884204DA2C4899
:1035C0000088401C2A4908802D480078A8B91C486A
:1035D000C08C2C4908801A48C08C2B4908800020D8
:1035E0002A4908701C4908702949088001F098FA96
:1035F000154800881549088007E001F091FA04E0B9
:1036000000201049087001F08BFA00200E49088054
:103610000F4908801F4908701F4908801F4908800A
:103620009FED1F0A1F4880ED000A00201E490880F8
:103630001E4908801E4908801E490870BDE8F081B7
:103640004CF800208D0100206A0100206C01002050
:10365000700100204D0100208B0100209601002008
:10366000940100208C010020E40100209201002040
:10367000900100204F010020500100204E01002049
:103680008E0100205201002056010020640100201C
:103690007A0100207C010020800100207E010020B2
:1036A000000000007401002082010020840100203D
:1036B000880100208601002070B50020FFF7CEFDB4
:1036C0000120FFF7CBFD0220FFF7C8FD0320FFF725
:1036D000C5FD03243CE0E0B2FFF7DBFD96200CF0D3
:1036E000A5FA012006F010F92C4931F814000CF06D
:1036F0009DFA002006F008F9C8200CF097FA002582
:103700001CE005200CF092FA002025490870FFF714
:103710002BF900BF01200CF089FA2148007800281D
:10372000F8D020480088C4F1030101EB81011E4A52
:1037300002EB410121F81500681C45B2052DE0DBC4
:10374000E0B2FFF78BFDC8200CF070FA601E44B2A7
:10375000002CC0DA00F058FE01F046FB1348007858
:1037600010280CD0022108460AF00CF8002010495D
:10377000086001200F4908700F4908700CE0012112
:10378000002009F0FFFF00200949086002200949D4
:10379000087000200849087070BD0000000100207A
:1037A000B301002094FB002060F30020FD00002006
:1037B000E40100208C0100204D01002070B5FFF7CE
:1037C00083FD4148007800287DD1002603244BE08A
:1037D0003E480078022803D03C48007803283FD1B7
:1037E0003B48007800283BD1E0B2FFF752FD96201D
:1037F0000CF01CFA012006F087F8364931F8140065
:103800000CF014FA002006F07FF8C8200CF00EFA35
:1038100000251CE005200CF009FA00202E49087054
:10382000FFF7A2F800BF01200CF000FA2A48007848
:103830000028F8D029480088C4F1030101EB810178
:10384000274A02EB410121F81500681C45B2052DFD
:10385000E0DBE0B2FFF702FDC8200CF0E7F901E081
:10386000012603E0601E44B2002CB1DA00BFEEB9BD
:1038700000F0CAFD08F0D4F901F0B6FAC8200CF047
:10388000D5F91248007803281DD116480078102871
:1038900005D00120144908701449087013E0012074
:1038A000114908700020114908700CE008480078A0
:1038B000012808D100200E49088002200449087020
:1038C00000200249087070BDB601002042010020AE
:1038D000C101002000010020B301002094FB002062
:1038E00060F30020FD000020960100204D01002023
:1038F000440100202DE9F04F88B04FF0000BCDF8C7
:103900001CB0CDF814B0CDF80CB0CDF808B0DC4642
:10391000CDF804B0CDF800B0DFF830E68EF800B096
:10392000DFF82CB69BF80000DFF828B69BF80040C3
:103930000CB9C72403E0A4F1010B0BF0FF042646E9
:10394000DFF814B63BF814100B460D464FF0000B91
:10395000DFF808E6AEF800B0DFF804E68EF800B055
:1039600043E00CB9C72403E0A4F1010B0BF0FF0402
:10397000DFF8E4B53BF81420A0F1010B0BF0FF00D9
:1039800001F1020B5A4516DA03F1320B5D4500DDF9
:103990002DE0134615464FF0000BDFF8C4E58EF816
:1039A00000B0DFF8B8E5AEF800B01146DFF8B4B506
:1039B0008BF8004019E0A2EB010BDFF8A0E5BEF8A0
:1039C00000E0F34505DDA2EB010BDFF890E5AEF872
:1039D00000B01546DFF888B59BF800B00BF1010B7D
:1039E000DFF87CE58EF800B011460028B9D100BFA1
:1039F000A5EB030BDFF870E5AEF800B0DFF86CB5AF
:103A0000ABF80050DFF868B5ABF800308246A0464E
:103A100060B108F1010B0BF0FF0800F1010B0BF096
:103A2000FF00B8F1C80F01DB4FF00008DFF820B548
:103A30009BF800B0ABEB000BDFF838E58EF800B078
:103A4000DFF828B5BBF800B0DFF824E5BEF800E0E9
:103A5000ABEB0E0BDFF810E5AEF800B0DFF804B505
:103A60009BF8000000F1010B0BF0FF00C82800DB01
:103A7000002018E0DFF8E0B43BF810B09B4504DC10
:103A8000DFF8D4B43BF8103006E0DFF8CCB43BF8F4
:103A900010B09B4500DD0CE000F1010B0BF0FF00C6
:103AA000C82800DB0020DFF8ACB4BBF800B05845F4
:103AB000E0D100BF9946DFF8ACB49BF800B0A0EBB2
:103AC0000B0BABF1010B0BF0FF0BCDF818B0A0F115
:103AD000010B0BF0FF0738464B461A464FF0000B20
:103AE000CDF810B000F1010B0BF0FF00C82800DB8F
:103AF000002018E0DFF860B43BF8101002F1020B70
:103B0000594500DD15E00A46DDF810B00BF1010B58
:103B10000BF0FF0BCDF810B000F1010B0BF0FF0024
:103B2000C82800DB0020DFF82CB4BBF800B05845F3
:103B3000E0D100BFDFF81CB4BBF800B0584576D127
:103B40004FF0000BCDF814B038464A46CDF810B00F
:103B500000F1010B0BF0FF00C82800DB002010E093
:103B6000DFF8F4B33BF8101001F1020B934500DAD3
:103B70000DE00A4600F1010B0BF0FF00C82800DB46
:103B80000020DFF8D0B3BBF800B05845E8D100BF43
:103B9000DFF8C0B3BBF800B0584525D1DFF8B8B3A3
:103BA0003BF816B0DFF8C8E3BEF800E0F3450EDAE4
:103BB0004FF0010BDFF8C0E38EF800B04FF00D0BB3
:103BC000DFF8B8E38EF800B008B0BDE8F08F4FF032
:103BD000000BDFF8A4E38EF800B04FF0020BDFF823
:103BE0009CE38EF800B0EFE708B9C72003E0A0F12E
:103BF000010B0BF0FF0008B9C72003E0A0F1010B97
:103C00000BF0FF00DFF850B33BF810B00BF1010BE5
:103C100093450DD14FF0000BDFF85CE38EF800B058
:103C20004FF0030BDFF854E38EF800B0CCE70CE064
:103C30004FF0010BDFF840E38EF800B04FF0040BBB
:103C4000DFF838E38EF800B0BEE74FF0010BCDF897
:103C500014B000F1010B0BF0FF00C82800DB0020BE
:103C60000A460EE0DFF8F0B23BF81010914200DC9B
:103C70000DE00A4600F1010B0BF0FF00C82800DB45
:103C80000020DFF8D0B2BBF800B05845EAD100BF41
:103C9000A0F1010BDFF8C0E23EF81BC018E0DFF82E
:103CA000B8B23BF8101001F1020B934500DA15E0B1
:103CB00002F1030B594503DD4FF0010BCDF80CB0B9
:103CC0000A4600F1010B0BF0FF00C82800DB0020C2
:103CD000DFF880B2BBF800B05845E0D100BFDFF894
:103CE00074B2BBF800B0584578D14FF0000BCDF856
:103CF00008B0DDF80CB0BBF1010F40D102F1040BAC
:103D00008B452FD108B9C72003E0A0F1010B0BF0C0
:103D1000FF0008B9C72003E0A0F1010B0BF0FF0082
:103D2000DFF834B23BF810B00BF1010B93450CD126
:103D30004FF0000BDFF840E28EF800B04FF0050BBB
:103D4000DFF838E28EF800B03EE74FF0010BDFF805
:103D500028E28EF800B04FF0060BDFF820E28EF874
:103D600000B031E74FF0010BDFF80CE28EF800B045
:103D70004FF0070BDFF804E28EF800B024E7DFF81D
:103D8000F0B1BBF800B00BF13C0BDC4513DCDFF805
:103D9000E0B1BBF800B00BF1230BDC452CDDDFF804
:103DA000D0B1BBF800B00BF1780BDFF8C0E1BEF882
:103DB00000E0F34520DDDFF8A0B13BF816B0E345A5
:103DC0000DDD4FF0000BDFF8B0E18EF800B04FF0E2
:103DD0000E0BDFF8A8E18EF800B0F5E619E04FF021
:103DE000010BDFF894E18EF800B04FF0100BDFF814
:103DF0008CE18EF800B0E7E64FF0000BDFF878E1D9
:103E00008EF800B04FF0080BDFF870E18EF800B0CC
:103E1000DAE64FF0010BCDF808B00EE0DFF838B16C
:103E20003BF81010914200DB0DE00A4600F1010B57
:103E30000BF0FF00C82800DB0020DFF818B1BBF84A
:103E400000B05845EAD100BFDFF808B1BBF800B0B8
:103E500058450CD14FF0000BDFF81CE18EF800B094
:103E60004FF0090BDFF814E18EF800B0ACE6A0F1DA
:103E7000010BDFF8E4E03EF81BB0CDF804B015E02C
:103E8000DFF8D4B03BF8101002F1020B594500DD09
:103E900012E001F1020B934500DA0DE00A4600F151
:103EA000010B0BF0FF00C82800DB0020DFF8A4B0F6
:103EB000BBF800B05845E3D100BFDFF898B0BBF8BD
:103EC00000B0584534D1DDF804B00BF10F0BDC45E0
:103ED0000CDD4FF0010BDFF8A0E08EF800B04FF0E2
:103EE0000C0BDFF898E08EF800B06DE6DFF868B0F4
:103EF0003BF816E0DDF804B0DE450CDA4FF0000BBD
:103F0000DFF874E08EF800B04FF00F0BDFF86CE0D4
:103F10008EF800B058E64FF0000BDFF85CE08EF84A
:103F200000B04FF00A0BDFF854E08EF800B04BE61B
:103F30004FF0010BDFF840E08EF800B04FF00B0BB4
:103F4000DFF838E08EF800B000BF3DE68E010020BB
:103F50007A0100206201002004FA00208001002084
:103F60007C0100208A0100207E01002082010020C7
:103F7000840100207D0100204E01002086010020E8
:103F80002DE9F041002500276D480078002839D13F
:103F90006C480088142811DA002406E06A4830F8DA
:103FA0001400284485B2601CC4B26648008884426C
:103FB000F4DB95FBF4F06549088013E000240AE087
:103FC00060480088001B401E5F4931F810002844FB
:103FD00085B2601CC4B2142CF2DB142095FBF0F007
:103FE0005A4908805A480078002846D15748008826
:103FF000584908805548008857490880012054498D
:1040000008703AE04F48008808B9322701E04D486F
:104010000788142F1FDA002406E04B4830F81400FC
:10402000284485B2601CC4B2BC42F6DB002608E01E
:10403000C6F13100444931F81000284485B2701CA3
:10404000C6B2C4F11400B042F2DC142095FBF0F0CB
:104050003E49088011E0002408E0381B401E3A4920
:1040600031F81000284485B2601CC4B2142CF4DB73
:10407000142095FBF0F035490880002407E037490B
:10408000601C31F8100021F81400601CC4B2132C1D
:10409000F5DB2E4800883149C8842C480088304917
:1040A000304A128821F812002F480088401C2E49FF
:1040B0000880264800882D490988884220DB23484B
:1040C00000882A4908800120294908702948007879
:1040D000B0B92648008828490988401A32280FDDDF
:1040E0002648007860B9012024490870002024493E
:1040F00008600120234908700221084609F042FBAC
:10410000124800881C490988884206DA0F4800884E
:104110001949088000201649087000F037F8114846
:104120000088401C0F49088008460088C82801DB29
:10413000002008800548008813490880BDE8F08108
:104140005E0100204A01002070F700205A01002083
:1041500097010020940100206C0100204CF8002001
:1041600074F80020620100207A0100205201002032
:10417000640100204D010020560100208B01002029
:10418000E40100208C0100207801002070B500219E
:104190000023384C247854BB374C24880A2C11DA7D
:1041A000002006E0354C34F810400C44A1B2441C09
:1041B000E0B2314C2488A042F4DB91FBF0F4304DA6
:1041C0002C804FE000200AE02B4C2488241A641E27
:1041D0002A4D35F814400C44A1B2441CE0B20A2820
:1041E000F2DB0A2491FBF4F4254D2C803AE0224CBA
:1041F00024880CB9322301E01F4C23880A2B1FDAD4
:10420000002006E01D4C34F810400C44A1B2441CC0
:10421000E0B29842F6DB002208E0C2F13104174D0B
:1042200035F814400C44A1B2541CE2B2C0F10A04A7
:104230009442F2DC0A2491FBF4F4114D2C8011E03D
:10424000002008E01C1A641E0C4D35F814400C4484
:10425000A1B2441CE0B20A28F4DB0A2491FBF4F476
:10426000074D2C80064C2488064D074E368825F8CD
:10427000164070BD5E0100204A01002070F700204A
:104280005C01002004FA00206201002070B50025C6
:10429000002029490870FEF767FB00BF01200BF0E2
:1042A000C5FC254800780028F8D024480088244917
:1042B000244A128821F8120022480088401C214913
:1042C0000880084600880A2834DB1D48408A1E49B9
:1042D000088000201B490880002406E0184830F8B8
:1042E0001400284485B2601CC4B20A2CF6DB0A20F4
:1042F00095FBF0F01549164A128821F8120008467D
:104300001349098830F811001249088010480088C4
:10431000401C0F49088008460088322804DB002032
:10432000088001200C490870FFF72AFEFFF72EFFD6
:10433000FEF7D8FF70BD0000B301002094FB002001
:10434000D4F70020480100206801002070F7002009
:104350004A010020660100205E01002010B5002007
:10436000FEF797FF0120FEF794FF0220FEF791FF72
:104370000320FEF78EFFC8200BF058FC00201649E2
:104380000870FEF7F1FA00BF01200BF04FFC124855
:1043900000780028F8D01148008884B210480480C2
:1043A0001048048000201049087010490870104916
:1043B0000880104908801049088010490870084991
:1043C000088040F6FF700749088000200C490870FB
:1043D0000C49087010BD0000B301002094FB0020C0
:1043E0005201002056010020640100208B010020B2
:1043F000480100204A010020600100205E010020E9
:104400006E0100206F0100202DE9F047002021E01F
:104410004FF6FF75002213E000EB8009DFF8C8A615
:104420000AEB490939F81290A94505DA00EB800931
:104430000AEB490939F8125002F1010909F0FF02AB
:10444000052AE9DBDFF8A49629F8105000F10109EC
:1044500009F0FF000428DBDB002020E0002500221B
:1044600013E000EB8009DFF880A60AEB490939F870
:104470001290A94505DD00EB80090AEB490939F8DE
:10448000125002F1010909F0FF02052AE9DBDFF809
:10449000609629F8105000F1010909F0FF00042886
:1044A000DCDB00201FE0002500220EE000EB80098D
:1044B000DFF834A60AEB490939F81290A9441FFA2B
:1044C00089F502F1010909F0FF02052AEEDB4FF040
:1044D000050995FBF9F9DFF81CA62AF8109000F100
:1044E000010909F0FF000428DDDB00254FF6FF7607
:1044F000002018E0DFF8F49539F81090A94504DDA4
:10450000DFF8E89539F810500146DFF8E09539F802
:104510001090B14503DADFF8D49539F8106000F156
:10452000010909F0FF000428E4DBA5EB0609DFF828
:10453000C8A5AAF8009000254FF6FF76002018E0E5
:10454000DFF8AC9539F81090A94504DDDFF8A095A7
:1045500039F810500146DFF8989539F81090B145B8
:1045600003DADFF88C9539F8106000F1010909F0E1
:10457000FF000428E4DBA5EB0609DFF880A5AAF814
:10458000009000254FF6FF76002019E0DFF86495D3
:1045900039F81090A94504DBDFF8589539F8105028
:1045A0000146DFF8509539F81090B14504DADFF88C
:1045B000449539F81060024600F1010909F0FF0046
:1045C0000428E3DBA5EB0609DFF834A5AAF8009080
:1045D000002011E0DFF81C9539F81090DFF814A5E1
:1045E0003AF812A0A9EB0A09DFF818A52AF81090EA
:1045F00000F1010909F0FF000428EBDB4FF0000C8B
:104600004FF6FF7800201DE0884217D0904215D069
:10461000DFF8F09439F81090E14504DBDFF8E4941A
:1046200039F810C00346DFF8DC9439F81090C14522
:1046300004DADFF8D09439F81080044600F101095B
:1046400009F0FF000428DFDB0AB1032A24D1DFF8D8
:10465000B49439F81190DFF8ACA43AF814A0A9EB9F
:104660000A09DFF8A4A42AF81190DFF8989439F821
:104670001390DFF890A43AF814A0A9EB0A09DFF828
:1046800088A42AF81390DFF87C9439F81490A9EBE9
:1046900009092AF81490C9E0012A64D1E9B3DFF8C6
:1046A000649439F81190DFF85CA4BAF800A0A9EB83
:1046B0000A09DFF854A42AF81190DFF8489439F871
:1046C0001390DFF840A4BAF800A0D1450EDDDFF862
:1046D000349439F81390DFF82CA4BAF800A0A9EBB1
:1046E0000A09DFF824A42AF8139005E04FF0000926
:1046F000DFF814A42AF81390DFF8089439F814901E
:10470000DFF800A4BAF800A0D14510DDDFF8F4937B
:1047100039F81490DFF8ECA300E00FE0BAF800A03D
:10472000A9EB0A09DFF8E0A32AF814907EE04FF025
:104730000009DFF8D4A32AF8149077E0DFF8C493D7
:1047400039F81190DFF8BCA33AF813A0A9EB0A09D5
:10475000DFF8B4A32AF811904FF000092AF813905B
:104760002AF8149062E003294CD0DFF8989339F8C6
:104770001190DFF890A3BAF806A0A9EB0A09DFF8B8
:1047800088A32AF81190DFF87C9339F81390DFF8AA
:1047900074A3BAF806A0D1450EDDDFF8689339F8A6
:1047A0001390DFF860A3BAF806A0A9EB0A09DFF8B6
:1047B00058A32AF8139005E04FF00009DFF848A34A
:1047C0002AF81390DFF83C9339F81490DFF834A3FB
:1047D000BAF806A0D1450EDDDFF8289339F8149019
:1047E000DFF820A3BAF806A0A9EB0A09DFF818A39E
:1047F0002AF814901AE04FF00009DFF80CA32AF809
:10480000149013E0DFF8FC9239F81190DFF8F4A26D
:104810003AF813A0A9EB0A09DFF8ECA22AF81190E4
:104820004FF000092AF813902AF814904FF000096D
:10483000DFF8D4A22AF81290D14639F81190DFF8A7
:10484000C0A2AAF80090002719BBDFF8BC92B9F803
:104850000290DFF8B8A2AAF800900122DFF8B09227
:1048600099F80090B9F1100F12D1DFF89892B9F8C9
:104870000490BAF800A0D1450ADDDFF88892B9F8B3
:104880000690DFF888A2BAF800A0D14500DD012724
:10489000A4E0032923D1DFF87092B9F80490DFF87F
:1048A0006CA2AAF800900222DFF8649299F80090B6
:1048B000B9F1100F12D1DFF84C92B9F80290BAF8A2
:1048C00000A0D1450ADDDFF83C92B9F80090DFF88E
:1048D0003CA2BAF800A0D14500DD01277EE0012905
:1048E0003DD1DFF81092B9F80090DFF808A2BAF8CD
:1048F00004A0D14519DDDFF81092B9F80090DFF877
:104900000CA2AAF800900022DFF8049299F8009017
:10491000B9F1100F62D1DFF8EC91B9F80690BAF84E
:1049200000A0D1455ADD012758E0DFF8DC91B9F845
:104930000490DFF8D8A1AAF800900222DFF8D09105
:1049400099F80090B9F1100F48D1DFF8B891B9F893
:104950000690BAF800A0D14540DD01273EE00229CB
:104960003CD1DFF89091B9F80690DFF888A1BAF849
:1049700002A0D14519DDDFF89091B9F80690DFF873
:104980008CA1AAF800900322DFF8849199F8009096
:10499000B9F1100F22D1DFF86C91B9F80090BAF894
:1049A00000A0D1451ADD012718E0DFF85C91B9F8C5
:1049B0000290DFF858A1AAF800900122DFF8509188
:1049C00099F80090B9F1100F08D1DFF83891B9F8D3
:1049D0000090BAF800A0D14500DD0127DFF8209152
:1049E000B9F80090DFF824A1BAF800A0D144DFF8AC
:1049F00024A1AAF800900027F7BBDFF80491B9F8CA
:104A00000090B9F1C80F4EDADFF8F490B9F80090D1
:104A1000B9F1C80F06DBDFF8009199F80090B9F101
:104A2000030F40D0DFF8D890B9F80090B9F1C80F63
:104A30000DDBDFF8E49099F80090B9F1010F06D191
:104A4000DFF8CC9099F80090B9F1100F2BD1DFF876
:104A5000C490B9F80090B9F5967F24DADFF8B490E5
:104A6000B9F80090B9F5967F08DBDFF8AC9099F8BB
:104A70000090B9F1030F00E029E014D0DFF8949022
:104A8000B9F80090B9F5967F16DBDFF88C9099F8AD
:104A90000090B9F1010F0FD1DFF8749099F80090F0
:104AA000B9F1100F08D0DFF8689089F80010DFF82E
:104AB0006C9089F8002014E04FF01009DFF850A046
:104AC0008AF80090DFF854A08AF8009009E04FF0CF
:104AD0001009DFF83CA08AF80090DFF840A08AF8BF
:104AE0000090BDE8F087000060F300200C0100207A
:104AF000140100201C0100202601002024010020B8
:104B00002801002030010020380100202A01002067
:104B1000FD0000202C010020420100204101002066
:104B200070B500248D480078012806D18C490819F9
:104B30008CA108F05BFE044405E0894908198AA1AC
:104B400008F054FE04448649081988A108F04EFE76
:104B500004448349081986490A8886A108F046FE5C
:104B600004447F49081985A108F040FE04447C49AB
:104B7000081983490A887FA108F038FE044478495F
:104B8000081980490A887BA108F030FE0444744962
:104B900008197AA108F02AFE0444714908197A49D3
:104BA0000A8874A108F022FE04446D490819774967
:104BB0000A8870A108F01AFE0444694908196BA11B
:104BC00008F014FE04446649081971490A7871A175
:104BD00008F00CFE04446249081964A108F006FEBE
:104BE00004445F4908196C490A786AA108F0FEFD7F
:104BF00004445B4908195DA108F0F8FD04445849D4
:104C0000081966490A7863A108F0F0FD0444544984
:104C1000081956A108F0EAFD0444514908196049F1
:104C20000A8854A108F0E2FD04444D4908195D4981
:104C30000A8850A108F0DAFD0444494908195A4984
:104C40000A884CA108F0D2FD044445490819574987
:104C5000B1F9002047A108F0C9FD044440490819F2
:104C60005349B1F9002043A108F0C0FD04443C4978
:104C7000081950490A883FA108F0B8FD0444384992
:104C800008193AA108F0B2FD0444354908194A4907
:104C90000A8838A108F0AAFD044431490819474997
:104CA0000A8834A108F0A2FD04442D49081944499A
:104CB0000A8830A108F09AFD0444294908192BA15B
:104CC00008F094FD0444264908193E490A8829A1A0
:104CD00008F08CFD0444224908193B490A8825A1A3
:104CE00008F084FD04441E49081920A108F07EFD47
:104CF00004441B49081935490A7835A108F076FDA6
:104D000004441749081919A108F070FD0444144916
:104D1000081931490A782EA108F068FD04441049A9
:104D200008192E490A782AA108F060FD04440C49AC
:104D300008192B490A7826A108F058FD04440849AF
:104D4000081928A108F052FD04440548FDF752F95E
:104D50000546294602480BF04DFB70BD4D01002071
:104D600088F3002031200000302000007C2000006B
:104D70009001002025346420000000002320000062
:104D80005A0100205C010020520100205601002041
:104D900064010020256420008B0100208D0100208B
:104DA0006C0100206A0100209401002070010020A5
:104DB000920100207A01002082010020840100205D
:104DC0008801002068010020660100208601002083
:104DD00025326420000000004E0100204F01002019
:104DE000500100207C00000070B5002462490819C1
:104DF00062490A7862A108F0F9FC04445E49081986
:104E000061490A785EA108F0F1FC04445A49081986
:104E10005E490A785EA108F0E9FC04445649081985
:104E20005CA108F0E3FC04445B490A885249081974
:104E300057A108F0DBFC044457494A884E49081939
:104E400053A108F0D3FC044453498A884A490819FD
:104E50004FA108F0CBFC04444F49CA8846490819C1
:104E60004BA108F0C3FC04444349081949A108F0C8
:104E7000BDFC044449490A883F49081948A108F083
:104E8000B5FC044445494A883B49081944A108F047
:104E9000ADFC044441498A883749081940A108F00B
:104EA000A5FC04443D49CA88334908193CA108F0CF
:104EB0009DFC0444304908193BA108F097FC0444C8
:104EC0003A490A882C49081935A108F08FFC044496
:104ED00036494A882849081931A108F087FC04445A
:104EE00032498A88244908192DA108F07FFC04441E
:104EF0002E49CA882049081929A108F077FC0444E2
:104F00001D49081928A108F071FC04441A49081920
:104F100027490A8822A108F069FC044416490819A7
:104F200024490A881EA108F061FC044412490819AA
:104F300021490A881AA108F059FC04440E490819AD
:104F400014A108F053FC04440B4908191B490A88B2
:104F500013A108F04BFC04440749081918A108F0F4
:104F600045FC04440448FDF745F805462946024837
:104F70000BF040FA70BD000088F30020FD00002017
:104F8000253264200000000041010020F9000020CB
:104F900025642000232000001C0100203001002097
:104FA00025346420000000007C200000380100202F
:104FB000280100202A0100202C0100202E010020C1
:104FC000230A000010B50446062C76D2DFE804F070
:104FD00075033976B2EE0120984908700121084620
:104FE00008F0FAFA4FF4FA700AF020FE00210220CD
:104FF00008F0F2FA0021032008F0EEFA0021042064
:1050000008F0EAFA012004F07FFC00208C490860D7
:105010004EF660200AF00AFE05208849087000203C
:1050200004F072FC0021012008F0D6FA0020854926
:1050300008604EF660200AF0F9FD00207F490870F4
:10504000F9E001207D4908700121022008F0C4FA2E
:105050004FF4FA700AF0EAFD0021012008F0BCFAD2
:105060000021032008F0B8FA0021042008F0B4FA67
:10507000012004F049FC002000F047FE00207049A8
:1050800008604EF660200AF0D1FD002004F03CFCE0
:10509000002000F03AFE0021022008F09DFA0520D1
:1050A000664908700020674908604EF660200AF0E3
:1050B000BDFD002061490870BDE0BBE001205F49F3
:1050C00008700121032008F087FA4FF4FA700AF003
:1050D000ADFD0021022008F07FFA0021012008F038
:1050E0007BFA0021042008F077FA012004F00CFC80
:1050F000002000F00AFE0020514908604EF66020B2
:105100000AF094FD002004F0FFFB002000F0FDFDFC
:105110000021032008F060FA0520484908700020AB
:10512000484908604EF660200AF080FD002043499F
:10513000087080E00120414908700121042008F036
:105140004BFA4FF4FA700AF071FD0021022008F0CA
:1051500043FA0021032008F03FFA0021012008F063
:105160003BFA012004F0D0FB002000F0CEFD00202F
:10517000334908604EF660200AF058FD002004F024
:10518000C3FB002000F0C1FD0021042008F024FA38
:1051900005202A49087000202A4908604EF6602040
:1051A0000AF044FD00202549087044E0012023490D
:1051B00008700121042008F00FFA0121022008F0F4
:1051C0000BFA0121032008F007FA0121084608F034
:1051D00003FA012004F098FB002000F096FD002067
:1051E000174908604EF660200AF020FD002004F008
:1051F0008BFB002000F089FD0021042008F0ECF971
:105200000021022008F0E8F90021032008F0E4F969
:105210000021012008F0E0F905200849087000206D
:10522000084908604EF660200AF000FD002003499E
:10523000087000E000BF00BF10BD0000B6010020F4
:10524000AC010020A801002010B52DED028B044612
:10525000B0EE408A4CF6483000594FF4FA7190FB9A
:10526000F1F201FB12014CF64830015100594CF2A9
:105270003431214401EB800080ED008A4CF6483047
:105280000059401C4CF64831085108460059B0F509
:10529000FA7F02D10120094908600848006820B956
:1052A0009FED070ABDEC028B10BD4FF4FA714CF272
:1052B0003430204405F096FFF4E700008C00002015
:1052C0000000000030B58BB0054600235A1E194679
:1052D0001A4800680BF088FC01282CD100240BE050
:1052E000A2012C21684606F0A1FA154900988842CF
:1052F00000D103E0601CC4B2802CF1DB00BF7F2C26
:1053000001DB002401E0601CC4B2002006F056FC62
:105310004FF4805006F052FCA2012C21284600F0E8
:1053200063FE00231A461946044800680BF07CFD12
:1053300001200BB030BD0020FBE70000F40100208D
:10534000AA55AA5510B50121042000F0C5FC034A56
:105350000421034806F012FA10BD0000480900209D
:105360000000010810B5044654B9012208210A487A
:1053700001F00EFF01221021074801F009FF09E0AA
:1053800000220821044801F003FF002210210248F6
:1053900001F0FEFE10BD00000004024010B50A48F6
:1053A0000A49086003208880002088710220C871A3
:1053B0000520087200BF01220921044806F0E2F826
:1053C0000028F8D010BD000055AA55AA54F30020BB
:1053D00000BFFEE710B504461E202F4908802F4B62
:1053E000084602882E492046FBF717F82C484088CB
:1053F0002C4908802A48C0884880294840898880EC
:105400002748C089C8802648408A08812448C08A25
:1054100048812348408B88812148C08BC88122491C
:10542000B1F90012204A02EB410010221D49FCF79D
:10543000BDFD1D48B0F80002083000B21A49A1F8BD
:1054400000020846B0F90002FF2824DD174A4FF495
:105450000071154809F0D3FE00201349A1F800029D
:105460001348C089A0B913480078012805D1124813
:105470000078401C1049087002E000200F490870B5
:105480000D4800781F2806DB00200B49087002E059
:1054900000200949087010BD2C000020F01F0020DA
:1054A000C01F0020E01F002024200020140B00203B
:1054B00098FF0020F400002032000020B7010020F7
:1054C000F0B5384EB6F90020B6F90010002010E013
:1054D000344E36F91060964202DD324E36F9102015
:1054E000304E36F910608E4202DA2E4E36F9101028
:1054F000401C1828ECDBFA2A38DD11F1FA0F35DAF6
:10550000FA2692FBF6F40E1E01DB374600E07742E6
:105510004FF0FA0C97FBFCF50E1E01DB374600E05E
:105520007742974201DA631C00E06B1C00201AE00E
:105530001C4E36F9106096FBF3F6B61F002707EBFA
:105540004007DFF864C00CF80760164E36F91060AB
:1055500096FBF3F6FA36C6F30726012707EB40075A
:105560000CF80760401C1828E2DB1AE0002016E067
:105570000C4E16F81060B61F002707EB4007DFF847
:1055800028C00CF80760074E36F81060FA36C6F3EC
:105590000726012707EB40070CF80760401C182876
:1055A000E6DBF0BDD8ED0020C0F2002070B500248D
:1055B000002513E001210D4801F0E2FD20B9681C2F
:1055C000C5B2012D01DD0AE00025601CC4B26420D3
:1055D0000AF02CFB142C01DB012070BDEAE700BFB0
:1055E000142C01DB0120F8E70020F6E70000024060
:1055F0002DE9F0472DED028B80460D460024A14693
:10560000F3480068401CF2490860F24890EDC30A74
:10561000F3EE040AB4EE600AF1EE10FA05D10021AF
:10562000A0F50060C0F8781B07E0EB48D0F8780BD5
:1056300018B90121E848C0F8781BE848808800289C
:1056400066D0E7480078E549C979884213D1E44833
:1056500040780F280FDCE1488079012807D1E14824
:105660000078102854D00120DF49087050E0012054
:10567000DD4908704CE0DA480078D849097A884258
:1056800039D1D74840780F2835DCD44880790128B3
:105690001AD1D5480078012816D1D24800781028B0
:1056A00036D00020D0490870CC488088401ECB49B5
:1056B00088800846808810B10AF0A8FE28E000F033
:1056C000BDFA06F0CBFA23E0C748007801281FD1C5
:1056D0000020C5490870C1488088401EBF498880A5
:1056E0000846808810B10AF091FE11E000F0A6FA99
:1056F00006F0B4FA0CE0BA480078B849097A884252
:1057000006D1B74840780F2802DD0020B64908705E
:10571000AF480068FCF71AFE41EC180B9FEDB30B85
:1057200053EC102BFCF76AFE0AD800F085FD38B167
:105730000121A948C0F84C1B0120AE49087006E0C1
:105740000021A548C0F84C1B0020AA490870A248B7
:10575000D0F8600B012803D101219F48C0F84C1BF1
:105760009B48A5490268404606F04CFFC4B2A24AD5
:1057700021469748006806F0AFFC04469648D0F8EA
:105780004C0B01284ED14FF0000995484078322843
:1057900009D193480078032803D091480078042861
:1057A00001D14FF001098C48D0F8600B012825D1B8
:1057B0008B480078012821D189484078F0B9884881
:1057C0008078052818DA002614E000270EE09FED07
:1057D0008B0A06EBC60000EB0610894901EB80003E
:1057E00000EB870080ED000A781C87B2192FEEDBF2
:1057F000701C86B2FB2EE8DB4FF00109B9F1000FF7
:1058000003D100207F4908700CE07E48007848B939
:1058100001224FF4C4517A4806F0B4FB012801D1AB
:1058200078490870052C11D16B48D0F8700B01280D
:105830000CD175488089012807D1734890F82A0057
:10584000401CC1B2704880F82A100224012C01D0FB
:10585000022C7DD15F4890EDC10ABCEEC00A10EE6B
:10586000100A6A4908705B4890EDC30ABCEEC00A92
:1058700010EE100A66490870564890EDC20ABCEE58
:10588000C00A10EE100A6349087063480470634848
:1058900090ED000ABCEEC00A10EE100A60490870D4
:1058A000604890ED000ABCEEC00A10EE100A5E4996
:1058B0000870012C06D101214748C0F8701B5248DE
:1058C00080F82B10504890F82B0040B3414890EDE1
:1058D000C10AF0EE000A20EE200ADFED540AB4EE11
:1058E000E00AF1EE10FA06DD4748807F401CC1B2A5
:1058F000454881771CE0374890EDC10AF0EE000A78
:1059000020EE200ADFED4A0AB4EEE00AF1EE10FACA
:1059100006DB3D48C07F401CC1B23B48C17707E071
:10592000394890F82000401CC1B2374880F8201058
:10593000284890EDC10AF0EE000A20EE200ABCEEE5
:10594000C00A10EE100A28702F4890F8260000E0D8
:105950000BE02978884203DA29782B4880F8261052
:105960002046BDEC028BBDE8F087032C2ED11948F0
:1059700090EDC10ABCEEC00A10EE100A234908706F
:10598000144890EDC30ABCEEC00A10EE100A20497C
:105990000870104890EDC20ABCEEC00A10EE100A62
:1059A0001C4908701C4804701C4890ED000ABCEEAD
:1059B000C00A10EE100A1A4908701A4890ED000A41
:1059C000BCEEC00A10EE100A174908700020C8E7A4
:1059D0006400002028EA002028E2002054F3002080
:1059E00008EE0020FD0000200A0100200000000059
:1059F000003FEB407600002028220020000000003D
:105A0000508300206800002098FF002085000020BF
:105A1000870000208A000020860000207C000020F3
:105A200088000020800000208900002000007842CB
:105A30000000544210B500F043FC0C48C0681B281D
:105A400012D01B200949C8600948006809498842EA
:105A500003D11B200549886002E01B2003494860F0
:105A6000FFF770FC07F03EF810BD00004809002069
:105A700008ED00E00000080810B5002210210C48D5
:105A800001F086FB052006F011F806F009F804463F
:105A90000A2009F0F7FA01221021054801F078FBED
:105AA00004F0010008B1012400E00024204610BDEC
:105AB0000000024010B5002210210C4801F068FBE4
:105AC000052005F0F3FF05F0EBFF04460A2009F07E
:105AD000D9FA01221021054801F05AFB04F0020016
